:03000000020C816E
:0C0C8100787FE4F6D8FD758158020CC89D
:1009DD00526563656976656420426974733A000DEA
:1009ED000A00456E746572206D6963726F2D636FB9
:1009FD006E74726F6C6C657220746F20626520620C
:100A0D006F72726F7765643A00456E74657220512E
:100A1D0075616E746974793A005265717565737498
:100A2D006564206D6963726F2D636F6E74726F6C88
:100A3D006C657220616C6C6F63617465642100522A
:100A4D006571756573746564206D6963726F2D636F
:100A5D006F6E74726F6C6C6572206E6F7420617640
:100A6D0061696C61626C652E2E2E00456E74657227
:100A7D00206D6963726F2D636F6E74726F6C6C6530
:100A8D007220746F2062652072657475726E656474
:100A9D003A00596F752063616E927420726574759A
:100AAD00726E207768617420796F7520646F6E9215
:100ABD007420686176652E2E2E0052657475726EE7
:100ACD006564206D6963726F2D636F6E74726F6CE8
:100ADD006C65722072656365697665642100526587
:100AED007475726E6564206D6963726F2D636F6EC0
:100AFD0074726F6C6C6572206F7574206F662062F6
:100B0D006F756E64732E2E2E0050726573732049AF
:100B1D0020666F7220497373756520616E64205273
:0C0B2D0020666F722052657475726E00B5
:100D5400C101C10006530000000000001E2B383002
:100D640035312D3820544956412D362041543332E3
:100D7400382D342053544D33322D34000A210000D1
:100D840000080006000400040A49000000080006E8
:040D94000004000453
:100B39008E118F128B138A1489157C277D10120C44
:100B49002CEF2430120BF8AE11AF127C277D101256
:100B59000C2C7E037FE8CFCDCFCECCCE120C2CEF60
:100B69002430AB13AA14A915900001120C0AAE1176
:100B7900AF127C037DE8120C2C7E007F64CFCDCFB1
:100B8900CECCCE120C2CEF2430AB13AA14A915909D
:100B99000002120C0AAE11AF127C007D64120C2CFB
:100BA9007E007F0ACFCDCFCECCCE120C2CEF2430D5
:100BB900AB13AA14A915900003120C0AAE11AF12B7
:100BC9007C007D0A120C2CED2430AB13AA14A91554
:060BD900900004020C0A6A
:100D0D00E4F5A0C282C280C2817F38FE120E457FFB
:100D1D00047E00120DB07F067E00120E457F047E0C
:100D2D0000120DB07F0C7E00120E457F047E001266
:100D3D000DB07F017E00120E457F047E00120DB0B6
:070D4D007F807E00020E45CD
:100D99007FC07E00120E457F047E00120DB0AF0A9F
:070DA900120E537F0A7E00C9
:100DB000E4FDFCC3ED9FEC9E5015E4FBFA0BBB0079
:0F0DC000010ABA01F8BB7EF50DBD00010C80E4FD
:010DCF002201
:0E0E4500C280C281D2828FA0120DACC2822266
:0E0E5300D280C281D2828FA0120DACC2822248
:100E00008B0E8A0F8910AB0EAA0FA910120BDF6090
:100E1000130510E5107002050F14F9120BDFFF1215
:050E20000E5380E222E8
:100E2500758920758DF3D2AFD2AC759850D28E22CC
:080E6B008F993001FDC2012244
:0B0DD000120E618F0B7BFF7A0979EC9B
:100DDB008B0E8A0F8910AB0EAA0FA910120BDF60B6
:100DEB00130510E5107002050F14F9120BDFFF123B
:050DFB000E6B80E222F6
:090E6100E4FF3000FDC200AF996E
:010E6A002265
:03002300020E3595
:100E3500309905C299D20132309804C298D2003255
:10080000E4F508F509120D0D120E257F807E001209
:100810000E457BFF7A0979DD120E00120DD5E52415
:100820002430F530E5262430F537E5282430F53F2F
:10083000E52A2430F5477B007A00792B120DDB1274
:100840000DD57BFF7A0B7916120DDB120DD57FC00B
:100850007E00120E457F047E00120DB0120E618FD5
:100860000A120DD57FC0120D9DE50AB469047F01FF
:1008700080027F00E50AB449047E0180027E00EE1A
:100880004F700302090A7BFF7A0979EF120DDB1220
:100890000DD5120DD0120D997BFF7A0A7916120D23
:1008A000DB120DD5120E618F0C120DD57FC0120D0B
:1008B0009DE50C24D0FFEE34FFFEE50B25E024C1BE
:1008C000F8E6FC08E6FDD3EF9DEC6480F8EE64806A
:1008D00098502BE50B25E024C1F8C000E6FE08E6A1
:1008E000FFE50C24D0FDE434FFFCC3EF9DFFEE9C3C
:1008F000D000F608A6077BFF7A0A792680067BFFE0
:100900007A0A794C120DDB120DD5E50AB472047F18
:100910000180027F00E50AB452047E0180027E005D
:10092000EE4F700302081B7BFF7A0A7978120DDB09
:10093000120DD5120DD0120D99E50B25E024E9F822
:10094000E6FE08E6FFE50B25E024C1F8E6FC08E634
:10095000B5070DECB506097BFF7A0A799F0209D429
:100960007BFF7A0A7916120DDB120DD5120E618FFC
:100970000D120DD5120D99E50D24D0FFEE34FFFEBA
:10098000E50B25E024C1F8E6FC08E62FFFEE3CFE6F
:10099000E50B25E024E9F8E6FC08E6FDD3EF9DEC45
:1009A0006480F8EE6480987BFF50257A0A79C7123C
:1009B0000DDB120DD5E50D24D0FFE434FFFEE50B71
:1009C00025E024C1F808EF26F618EE36F602081BDB
:0D09D0007A0A79EB120DDB120DD502081B1F
:100C8D00020800E493A3F8E493A34003F68001F275
:100C9D0008DFF48029E493A3F85407240CC8C33368
:100CAD00C4540F4420C8834004F456800146F6DF37
:100CBD00E4800B0102040810204080900D54E47E66
:100CCD00019360BCA3FF543F30E509541FFEE4932C
:100CDD00A360010ECF54C025E060A840B8E493A3F3
:100CED00FAE493A3F8E493A3C8C582C8CAC583CA1E
:100CFD00F0A3C8C582C8CAC583CADFE9DEE780BED6
:010D9800005A
:100BDF00BB010689828A83E0225002E722BBFE0214
:090BEF00E32289828A83E4932247
:100BF800BB010689828A83F0225002F722BBFE01DC
:020C0800F322D5
:100C0A00F8BB010DE58229F582E5833AF583E8F020
:100C1A00225006E92582C8F622BBFE05E92582C8CC
:020C2A00F222B4
:100C2C00BC000BBE0029EF8DF084FFADF022E4CCAC
:100C3C00F875F008EF2FFFEE33FEEC33FCEE9DEC75
:100C4C00984005FCEE9DFE0FD5F0E9E4CEFD22EDBB
:100C5C00F8F5F0EE8420D21CFEADF075F008EF2F05
:100C6C00FFED33FD4007985006D5F0F222C398FDF6
:050C7C000FD5F0EA2293
:00000001FF
