:03000000020B46AA
:0C0B4600787FE4F6D8FD75811D020B8D50
:100BD200456E7465722050617373776F72643A2048
:100BE20000436F72726563742050617373776F7222
:100BF2006400416363657373204772616E74656458
:100C0200004163636573732044656E6965640057D0
:100C1200726F6E672050617373776F726400202069
:100C220020202020202020202020202020200020E2
:070C320020202020202020DB
:0B0CF0000915313541382A4436230035
:100C3900E4F5A0C282C280C2817F38FE120CCC12B8
:100C49000C837F067E00120CCC120C837F0C7E0075
:100C5900120CCC120C837F017E00120CCC120C8377
:070C69007F807E00020CCC2D
:100C70007F017E00120CCC7F047E00120C877F80E7
:070C8000120CCC7F047E0082
:100C8700E4FDFCC3ED9FEC9E5015E4FBFA0BBB00A3
:0F0C9700010ABA01F8BB7EF50DBD00010C80E427
:010CA600222B
:100CCC00C280C281D2828FA07F0A7E00120C87C2A2
:020CDC00822272
:100CDE00D280C281D2828FA07F0A7E00120C87C280
:020CEE00822260
:100CA7008B128A138914AB12AA13A914120B2D6085
:100CB700130514E5147002051314F9120B2DFF1216
:050CC7000CDE80E222BA
:1008000078087C007D007BFF7A0C79317E007F08C0
:10081000120B07751000751101120C39120C777B41
:10082000FF7A0B79D2120CA7120C83E4F583F582C0
:100830007FC0120C80E4F59075B00FE5B0C454F0A1
:10084000F5B0AFB07E00EF64F070EAAFB07E00EFBD
:1008500064F060F77F14120C87AFB0EF64F060D5DE
:1008600075B0EF7F0A120C87AFB053070FEF640E1D
:10087000700DAF8274082FF87641AFB00209B5EF62
:10088000640D4E700BAF8274082FF876330209A501
:10089000EF640B4E700BAF8274082FF876320209AA
:1008A000A5EF64074E700BAF8274082FF876310203
:1008B00009A575B0DF7F0A7E00120C87AFB0530721
:1008C0000FEF640E700DAF8274082FF87642AFB050
:1008D0000209B5EF640D4E700BAF8274082FF876E5
:1008E000360209A5EF640B4E700BAF8274082FF827
:1008F00076350209A5EF64074E700BAF8274082F9E
:10090000F876340209A575B0BF7F0A7E00120C8705
:10091000AFB053070FEF640E700DAF8274082FF85D
:100920007643AFB00209B5EF640D4E700AAF827422
:10093000082FF87639806EEF640B4E700AAF827420
:10094000082FF87638805EEF64074E700AAF827425
:10095000082FF87637804E75B07F7F0A7E00120C24
:1009600087AFB053070FEF640E700CAF8274082F7F
:10097000F87644AFB0803EEF640D4E700AAF8274DB
:10098000082FF87623801EEF640B4E700AAF827436
:10099000082FF87630800EEF64074E700EAF827429
:1009A000082FF8762AAFB07E00800AE582158270A3
:1009B0000F1583800BAF8274082FF8E6FF120CDE50
:1009C000120C83A3C3E5829408E5839400500302CC
:1009D0000835E4F583F582AF8274152FF8E6FFAE93
:1009E0008274082EF8E66F6007E4F510F511802593
:1009F000A3E5826408458370DE120C707BFF7A0BDE
:100A000079E3120CA7120C837FC0120C807BFF7A53
:100A10000B79F4801A120C707BFF7A0C7911120C8E
:100A2000A7120C837FC0120C807BFF7A0C79031213
:070A30000CA7120C8380FEED
:100B5200020800E493A3F8E493A34003F68001F2B1
:100B620008DFF48029E493A3F85407240CC8C333A4
:100B7200C4540F4420C8834004F456800146F6DF73
:100B8200E4800B0102040810204080900CF0E47E07
:100B9200019360BCA3FF543F30E509541FFEE49368
:100BA200A360010ECF54C025E060A840B8E493A32F
:100BB200FAE493A3F8E493A3C8C582C8CAC583CA5A
:100BC200F0A3C8C582C8CAC583CADFE9DEE780BE12
:010CFB0000F8
:100A3700E709F608DFFA8046E709F208DFFA803EA1
:100A470088828C83E709F0A3DFFA8032E309F6088E
:100A5700DFFA8078E309F208DFFA807088828C83F6
:100A6700E309F0A3DFFA806489828A83E0A3F608AA
:100A7700DFFA805889828A83E0A3F208DFFA804C84
:100A870080D280FA80C680D4806980F2803380105B
:100A970080A680EA809A80A880DA80E280CA8033C4
:100AA70089828A83ECFAE493A3C8C582C8CCC5833C
:100AB700CCF0A3C8C582C8CCC583CCDFE9DEE7800C
:100AC7000D89828A83E493A3F608DFF9ECFAA9F08B
:100AD700EDFB2289828A83ECFAE0A3C8C582C8CCE1
:100AE700C583CCF0A3C8C582C8CCC583CCDFEADEFA
:100AF700E880DB89828A83E493A3F208DFF980CC5C
:100B070088F0EF60010E4E60C388F0ED2402B40454
:100B17000050B9F582EB2402B4040050AF232345FB
:060B27008223900A87738F
:100B2D00BB010689828A83E0225002E722BBFE02C6
:090B3D00E32289828A83E49322F9
:00000001FF
