:03000000020100FA
:04010000316D80FEDF
:10013000C00078C03164D807D00022C00078CC312C
:1001400064D8FCD00022C00078E43164D8FCD00030
:1001500022C000C00478FF7C19DCFE3164D8FCD0DA
:1001600004D00022C0007802D8FED00022C3E5905F
:10017000F5F0540FC3940F7006B287313080EFE56D
:10018000F0540FC394077006B287313B80E0E5F06E
:10019000540FC394037006B287314680D1E5F05402
:0C01A0000FC3940170F7B287315180C288
:00000001FF
