:03000000020D5896
:0C0D5800787FE4F6D8FD75817E020D9FC7
:0E0ED90050726F64313D0054696D65313D000B
:100E2B00142C000000000000000000000000000077
:100E3B000000000000002024400000000000000023
:100E4B000000000000000000000000000000000097
:0D0E5B00000000000000000000000000008A
:100DE400E4F5A0C282C280C2817F38FE120EBD7FAC
:100DF400047E00120E787F067E00120EBD7F047EF4
:100E040000120E787F0C7E00120EBD7F047E00124D
:100E14000E787F017E00120EBD7F047E00120E78D4
:070E24007F807E00020EBD7D
:0F0E6900F8120D27EF2430FF120ECB7F0A7E0008
:100E7800E4FDFCC3ED9FEC9E5015E4FBFA0BBB00B0
:0F0E8800010ABA01F8BB7EF50DBD00010C80E434
:010E97002238
:0E0EBD00C280C281D2828FA0120E74C2822225
:0E0ECB00D280C281D2828FA0120E74C2822207
:100E98008B7C8A7D897EAB7CAA7DA97E120BE06063
:100EA80013057EE57E7002057D14F9120BE0FF1232
:050EB8000ECB80E222D8
:10080000E4F57BF57AF579F578750B01F50AF509CC
:10081000F508756B9B756A74F569F568756FE57514
:100820006E2BF56DF56C120DE47F047E00120E78D0
:10083000758910E4F58DF58BD28E7B0AFAF9F8AF45
:100840006BAE6AAD69AC68120C848F178E168D156D
:100850008C14E47B0AFAF9F8AF6BAE6AAD69AC6848
:10086000120C84AC00AD01AE02AF038F0F8E0E8D63
:100870000D8C0CE47B0AFAF9F8AF6FAE6EAD6DAC7F
:100880006C120C848F1F8E1E8D1D8C1CE47B0AFA4B
:10089000F9F8AF6FAE6EAD6DAC6C120C84AC00AD00
:1008A00001AE02AF038F138E128D118C10AB0FAA05
:1008B0000EA90DA80C120BF98F1B8E1A8D198C180E
:1008C000AF1FAE1EAD1DAC1CAB0FAA0EA90DA80C20
:1008D000120BF98F238E228D218C20AF13AE12AD17
:1008E00011AC10AB17AA16A915A814120BF98F2773
:1008F0008E268D258C24AF1FAE1EAD1DAC1CAB17F4
:10090000AA16A915A814120BF98F2B8E2A8D298CE3
:1009100028E5232527FFE5223526FEE5213525FD9F
:10092000E5203524FCE47B0AFAF9F8120BF9EF25EF
:100930001BFFEE351AFEED3519FDEC3518FCC00431
:10094000C005C006C007E47F64FEFDFCAB2BAA2AED
:10095000A929A828120BF9D003D002D001D000EFAA
:100960002BF573EE3AF572ED39F571EC38F570C28E
:100970008EAF8DEFFEAD8B7C00E42DFFEC3EC313FC
:10098000FEEF13FFE48F678E66F565F56485737778
:10099000857276857175857074F50BF50AF509F524
:1009A00008E47F08FEFDFCAB0BAA0AA909A808D33E
:1009B000120D165055E47B0AFAF9F8AF77AE76AD12
:1009C00075AC74120C84AC00AD01AE02AF03E50B44
:1009D00025E025E02440F8120D33AF77AE76AD75F3
:1009E000AC74E47B0AFAF9F8120C848F778E768D5A
:1009F000758C74E50B2401F50BE4350AF50AE43532
:100A000009F509E43508F5088097856777856676E6
:100A1000856575856474E4750B01F50AF509F508BB
:100A2000E47F05FEFDFCAB0BAA0AA909A808D312B6
:100A30000D16506AE47B0AFAF9F8AF77AE76AD7519
:100A4000AC74120C84AC00AD01AE02AF03E57B25A3
:100A5000E025E0242CF8120D33AF77AE76AD75ACFF
:100A600074E47B0AFAF9F8120C848F778E768D7510
:100A70008C74E57B2401F57BE4357AF57AE43579ED
:100A8000F579E43578F578E50B2401F50BE4350AC2
:100A9000F50AE43509F509E43508F5088082E47FB4
:100AA00004FEFDFCAB7BAA7AA979A878C3120D16C7
:100AB0005066E4750B01F50AF509F508C374049551
:100AC0007BFFE4957AFEE49579FDE49578FCAB0B29
:100AD000AA0AA909A808D3120D16503CE57B25E007
:100AE00025E0242CF8120D3F00000000E57B2401D6
:100AF000F57BE4357AF57AE43579F579E43578F5FE
:100B000078E50B2401F50BE4350AF50AE43509F51F
:100B100009E43508F50880A47F017E00120EBD7F30
:100B2000047E00120E787F80120EBD7F047E0012BC
:100B30000E787BFF7A0E79D9120E98120E74E4F5B6
:100B400077F576F575F574E47F09FEFDFCAB77AAC1
:100B500076A975A874C3120D165027C3740895772B
:100B6000FFEF25E025E02440120E69E5772401F52A
:100B700077E43576F576E43575F575E43574F57416
:100B800080C57FC07E00120EBD120E747BFF7A0EF0
:100B900079E0120E98120E74E4F577F576F575F596
:100BA00074AF7BAE7AAD79AC78AB77AA76A975A82D
:100BB00074C3120D165027C374049577FFEF25E018
:100BC00025E0242C120E69E5772401F577E43576CB
:100BD000F576E43575F575E43574F57480C380FEFB
:100D6400020800E493A3F8E493A34003F68001F29D
:100D740008DFF48029E493A3F85407240CC8C33390
:100D8400C4540F4420C8834004F456800146F6DF5F
:100D9400E4800B0102040810204080900E2BE47EB6
:100DA400019360BCA3FF543F30E509541FFEE49354
:100DB400A360010ECF54C025E060A840B8E493A31B
:100DC400FAE493A3F8E493A3C8C582C8CAC583CA46
:100DD400F0A3C8C582C8CAC583CADFE9DEE780BEFE
:010E68000089
:100BE000BB010689828A83E0225002E722BBFE0213
:090BF000E32289828A83E4932246
:100BF900E88FF0A4CC8BF0A42CFCE98EF0A42CFC9B
:100C09008AF0EDA42CFCEA8EF0A4CDA8F08BF0A418
:100C19002DCC3825F0FDE98FF0A42CCD35F0FCEB77
:100C29008EF0A4FEA9F0EB8FF0A4CFC5F02ECD393C
:0F0C3900FEE43CFCEAA42DCE35F0FDE43CFC22A9
:100C480075F008758200EF2FFFEE33FECD33CDCC63
:100C580033CCC58233C5829BED9AEC99E5829840E6
:100C68000CF582EE9BFEED9AFDEC99FC0FD5F0D6C3
:100C7800E4CEFBE4CDFAE4CCF9A88222B800C1B9ED
:100C88000059BA002DEC8BF084CFCECDFCE5F0CB2B
:100C9800F97818EF2FFFEE33FEED33FDEC33FCEB64
:100CA80033FB10D703994004EB99FB0FD8E5E4F91F
:100CB800FA227818EF2FFFEE33FEED33FDEC33FC0C
:100CC800C933C910D7059BE99A4007EC9BFCE99A00
:100CD800F90FD8E0E4C9FAE4CCFB2275F010EF2F45
:100CE800FFEE33FEED33FDCC33CCC833C810D70745
:100CF8009BEC9AE899400AED9BFDEC9AFCE899F880
:0E0D08000FD5F0DAE4CDFBE4CCFAE4C8F92212
:100D1600EB9FF5F0EA9E42F0E99D42F0E89C45F033
:010D260022AA
:0C0D2700E6FC08E6FD08E6FE08E6FF22F8
:0C0D3300ECF608EDF608EEF608EFF622EC
:100D3F00D083D082E493F608740193F6087402937B
:090D4F00F608740393F6740473B2
:00000001FF
