:03000000020B2CC4
:0C0B2C00787FE4F6D8FD758126020B737B
:100A8A00202053544152542050524F4752414D2036
:100A9A0000202020464952535420494E5055542094
:100AAA0020002020204E45585420494E50555420AD
:100ABA00202000202020534F5254494E472E2E20EA
:100ACA00202000202020434F4D504C4554454420BF
:100ADA0020200020204E554D42455220544F20429E
:100AEA0045200020202020204E554D4245522020EE
:100AFA00202020002020204E4F5420464F554E449F
:100B0A0000202020205345415243484544202020BC
:100B1A0000202054484520494E4445582049532036
:020B2A002000A9
:100C610011083030303030303030303030303030CA
:030C710030300020
:100BB800E4F5A0C282C280C2817F38FE120C751291
:100BC8000BF97F067E00120C75120BF97F0C7E0064
:100BD800120C75120BF97F017E00120C75120BF9BD
:070BE8007F807E00020C7506
:0E0BEF007590FF7F807E00120C757F047E00E3
:100BFD00E4FDFCC3ED9FEC9E5015E4FBFA0BBB002E
:0F0C0D00010ABA01F8BB7EF50DBD00010C80E4B1
:010C1C0022B5
:100C7500C280C281D2828FA07F0A7E00120BFDC284
:020C85008222C9
:100C8700D280C281D2828FA07F0A7E00120BFDC262
:020C97008222B7
:060C1D007BFF7A0A79ACAE
:100C23008B248A258926AB24AA25A926120C486081
:100C3300130526E5267002052514F9120C48FF1248
:050C43000C8780E22295
:10080000E4F522F523120BB8120BF275900F7BFF63
:100810007A0A798A120C237F887E13120BFD120B41
:10082000F27BFF7A0A799B120C237F887E13120BCE
:10083000FDE590C454F0F590859019120BF2120C5E
:100840001D7F887E13120BFDE4F5907FE87E031276
:100850000BFD75900F120BF9E590C454F0F59085DF
:10086000901A7F80120BF6120C1D7F887E13120BDC
:10087000FDE4F5907FE87E03120BFD75900F120BDF
:10088000F9E590C454F0F59085901B7F80120BF62B
:10089000120C1D7F887E13120BFDE4F5907FE87E1D
:1008A00003120BFD75900F120BF9E590C454F0F58F
:1008B0009085901C7F80120BF6120C1D7F887E1392
:1008C000120BFDE4F5907FE87E03120BFD75900F8F
:1008D000120BF9E590C454F0F59085901D7F8012BD
:1008E0000BF67BFF7A0A79BD120C237F887E1312E8
:1008F0000BFDE4F5907FE87E03120BFD7FC0120B29
:10090000F47BFF7A0A79CD120C23E4F51EF51FE47F
:10091000F520F521C37404951FFFE4951EFEC3E581
:10092000219FEE6480F8E520648098502AAF2174FE
:10093000192FF8E6FE741A2FF8E6FFC39E500EAD8D
:1009400021741A2DF8A60674192DF8A6070521E5BD
:100950002170C1052080BD051FE51F7002051E64C2
:1009600004451E70AAE4F520F521F51EF51F851932
:10097000907F887E13120BFDE4F5907FE87E0312D2
:100980000BFD851A907F887E13120BFDE4F5907F96
:10099000E87E03120BFD851B907F887E13120BFDF2
:1009A000E4F5907FE87E03120BFD851C907F887E26
:1009B00013120BFDE4F5907FE87E03120BFD851DFD
:1009C000907F887E13120BFDE4F5907FE87E031282
:1009D0000BFD120BEF7BFF7A0A79DD120C237FC02F
:1009E000120BF47BFF7A0B790B120C237F887E139A
:1009F000120BFDE590C454F0F590A990E4F5907FBA
:100A000001FE120C757FE87E03120BFDE4F51EF566
:100A10001FF520F521F51EF51F7419251FF8E6B501
:100A20000108752200752301800E051FE51F700265
:100A3000051E6405451E70E1E52364014522702E04
:100A4000051FE51F7002051E120BF27BFF7A0B7962
:100A50001B120C23851F90E51FC4F8540FC868F5BE
:100A60001FE51EC454F048F51E851F90801A120B16
:100A7000EF7BFF7A0A79ED120C237FC0120BF47B17
:0A0A8000FF7A0A79FE120C2380FEB3
:100B3800020800E493A3F8E493A34003F68001F2CB
:100B480008DFF48029E493A3F85407240CC8C333BE
:100B5800C4540F4420C8834004F456800146F6DF8D
:100B6800E4800B0102040810204080900C61E47EB0
:100B7800019360BCA3FF543F30E509541FFEE49382
:100B8800A360010ECF54C025E060A840B8E493A349
:100B9800FAE493A3F8E493A3C8C582C8CAC583CA74
:100BA800F0A3C8C582C8CAC583CADFE9DEE780BE2C
:010C7400007F
:100C4800BB010689828A83E0225002E722BBFE02AA
:090C5800E32289828A83E49322DD
:00000001FF
