:03000000020130CA
:100130007570D875715B7C017BFFAF70020164E55F
:10014000708572F0A404F8A9F07D00AA71E88AF025
:10015000C395F0F8E975F00095F0F90D70ED0D8D8F
:10016000721201F9EF8CF0A404F8A9F01201816079
:100170000B8571F0C395F060030CDBE88C72020113
:100180003F7E000E74018571F0A4AAF0FDE88DF0A9
:10019000C395F0F8E98AF095F04003F9600250E366
:1001A000ED28F8E97009E88571F0C395F04011E891
:1001B0008571F0C395F0F8E975F00095F0F970EFEE
:1001C000E8F57222C000780431DAD8FCD00022C0F1
:1001D00000781431DAD8FCD00022C00078FA31E57A
:1001E000D8FCD00022C000780431F0D8FCD0002226
:1001F000C00078F4D8FED000228C72E57254F0F57D
:10020000901201CF7590001201C4E572540FC4F52D
:0A021000901201CF7590001201C496
:00000001FF
