:03000000020100FA
:08010000316531A831DE80FEFB
:10013000C00078283146D8FCD00022C000781431A5
:1001400046D8FCD00022C00078FA3151D8FCD0004B
:1001500022C0007804315CD8FCD00022C00078F4C2
:10016000D8FED0002278607D017E04740075F00016
:10017000EDC4F590D290D291D292D2933130E590E5
:10018000540FC4F5F00DEDC4F590D290D291D292F7
:10019000D2933130E590540F25F0F6080DDECCC235
:1001A00094C295C296C297227C047860797086F0DA
:1001B000E5F054807021E5F0C3940A50047705807F
:1001C00018E5F0C394145004770F800DE5F0C39444
:1001D0001E50047719800277230809DCD122C37CE2
:1001E000047870E6C39405700AD294C295C296C290
:1001F000978028E6C3940F700AC294D295C296C223
:10020000978018E6C39419700AC294C295D296C218
:10021000978008C294C295C296D297313B08DCC33E
:0302200080BC227D
:00000001FF
