:03000000020D6787
:0C0D6700787FE4F6D8FD75817E020DAEA9
:0E0EE80050726F64313D0054696D65313D00FC
:100E3A00142C000000000000000000000000000068
:100E4A000000000000002024400000000000000014
:100E5A000000000000000000000000000000000088
:0D0E6A00000000000000000000000000007B
:100DF300E4F5A0C282C280C2817F38FE120ECC7F8E
:100E0300047E00120E877F067E00120ECC7F047EC6
:100E130000120E877F0C7E00120ECC7F047E001220
:100E23000E877F017E00120ECC7F047E00120E8798
:070E33007F807E00020ECC5F
:0F0E7800F8120D36EF2430FF120EDA7F0A7E00DB
:100E8700E4FDFCC3ED9FEC9E5015E4FBFA0BBB00A1
:0F0E9700010ABA01F8BB7EF50DBD00010C80E425
:010EA6002229
:0E0ECC00C280C281D2828FA0120E83C2822207
:0E0EDA00D280C281D2828FA0120E83C28222E9
:100EA7008B7C8A7D897EAB7CAA7DA97E120BEF6045
:100EB70013057EE57E7002057D14F9120BEFFF1214
:050EC7000EDA80E222BA
:10080000E4F57BF57AF579F578750B01F50AF509CC
:10081000F508756B9B756A74F569F568756FE57514
:100820006E2BF56DF56C120DF37F047E00120E87B2
:10083000758910E4F58DF58BD28E7B0AFAF9F8AF45
:100840006BAE6AAD69AC68120C938F178E168D155E
:100850008C14E47B0AFAF9F8AF6BAE6AAD69AC6848
:10086000120C93AC00AD01AE02AF038F0F8E0E8D54
:100870000D8C0CE47B0AFAF9F8AF6FAE6EAD6DAC7F
:100880006C120C938F1F8E1E8D1D8C1CE47B0AFA3C
:10089000F9F8AF6FAE6EAD6DAC6C120C93AC00ADF1
:1008A00001AE02AF038F138E128D118C10AB0FAA05
:1008B0000EA90DA80C120C088F1B8E1A8D198C18FE
:1008C000E513251FFBE512351EFAE511351DF9E587
:1008D00010351CF8E50F2517FFE50E3516FEE50D62
:1008E0003515FDE50C3514FC120C088F238E228D76
:1008F000218C20AF1FAE1EAD1DAC1CAB17AA16A9D4
:1009000015A814120C088F278E268D258C24C3E57C
:1009100023951BFFE522951AFEE5219519FDE5209B
:100920009518FCC3EF9527FFEE9526FEED9525FD66
:10093000EC9524FCE47B0AFAF9F8120C08EF251B6D
:10094000FFEE351AFEED3519FDEC3518FCC004C07C
:1009500005C006C007E47F64FEFDFCAB27AA26A9FC
:1009600025A824120C08D003D002D001D000EF2B10
:10097000F573EE3AF572ED39F571EC38F570C28E1B
:10098000AF8DEFFEAD8B7C00E42DFFEC3EC313FE7C
:10099000EF13FFE48F678E66F565F56485737785E1
:1009A0007276857175857074F50BF50AF509F50891
:1009B000E47F08FEFDFCAB0BAA0AA909A808D31224
:1009C0000D255055E47B0AFAF9F8AF77AE76AD7590
:1009D000AC74120C93AC00AD01AE02AF03E50B2575
:1009E000E025E02440F8120D42AF77AE76AD75AC4D
:1009F00074E47B0AFAF9F8120C938F778E768D7572
:100A00008C74E50B2401F50BE4350AF50AE435098D
:100A1000F509E43508F5088097856777856676855A
:100A20006575856474E4750B01F50AF509F508E44C
:100A30007F05FEFDFCAB0BAA0AA909A808D3120D7D
:100A400025506AE47B0AFAF9F8AF77AE76AD75AC5B
:100A500074120C93AC00AD01AE02AF03E57B25E050
:100A600025E0242CF8120D42AF77AE76AD75AC744C
:100A7000E47B0AFAF9F8120C938F778E768D758CD9
:100A800074E57B2401F57BE4357AF57AE43579F574
:100A900079E43578F578E50B2401F50BE4350AF5B2
:100AA0000AE43509F509E43508F5088082E47F0495
:100AB000FEFDFCAB7BAA7AA979A878C3120D25505C
:100AC00066E4750B01F50AF509F508C37404957B16
:100AD000FFE4957AFEE49579FDE49578FCAB0BAAEA
:100AE0000AA909A808D3120D25503CE57B25E0256D
:100AF000E0242CF8120D4E00000000E57B2401F5E7
:100B00007BE4357AF57AE43579F579E43578F5786A
:100B1000E50B2401F50BE4350AF50AE43509F5097E
:100B2000E43508F50880A47F017E00120ECC7F0416
:100B30007E00120E877F80120ECC7F047E00120E84
:100B4000877BFF7A0E79E8120EA7120E83E4F57701
:100B5000F576F575F574E47F09FEFDFCAB77AA76B2
:100B6000A975A874C3120D255027C374089577FF83
:100B7000EF25E025E02440120E78E5772401F57793
:100B8000E43576F576E43575F575E43574F57480FD
:100B9000C57FC07E00120ECC120E837BFF7A0E79C9
:100BA000EF120EA7120E83E4F577F576F575F5745E
:100BB000AF7BAE7AAD79AC78AB77AA76A975A8741D
:100BC000C3120D255027C374049577FFEF25E02548
:100BD000E0242C120E78E5772401F577E43576F5DC
:0F0BE00076E43575F575E43574F57480C380FEE1
:100D7300020800E493A3F8E493A34003F68001F28E
:100D830008DFF48029E493A3F85407240CC8C33381
:100D9300C4540F4420C8834004F456800146F6DF50
:100DA300E4800B0102040810204080900E3AE47E98
:100DB300019360BCA3FF543F30E509541FFEE49345
:100DC300A360010ECF54C025E060A840B8E493A30C
:100DD300FAE493A3F8E493A3C8C582C8CAC583CA37
:100DE300F0A3C8C582C8CAC583CADFE9DEE780BEEF
:010E7700007A
:100BEF00BB010689828A83E0225002E722BBFE0204
:090BFF00E32289828A83E4932237
:100C0800E88FF0A4CC8BF0A42CFCE98EF0A42CFC8B
:100C18008AF0EDA42CFCEA8EF0A4CDA8F08BF0A409
:100C28002DCC3825F0FDE98FF0A42CCD35F0FCEB68
:100C38008EF0A4FEA9F0EB8FF0A4CFC5F02ECD392D
:0F0C4800FEE43CFCEAA42DCE35F0FDE43CFC229A
:100C570075F008758200EF2FFFEE33FECD33CDCC54
:100C670033CCC58233C5829BED9AEC99E5829840D7
:100C77000CF582EE9BFEED9AFDEC99FC0FD5F0D6B4
:100C8700E4CEFBE4CDFAE4CCF9A88222B800C1B9DE
:100C97000059BA002DEC8BF084CFCECDFCE5F0CB1C
:100CA700F97818EF2FFFEE33FEED33FDEC33FCEB55
:100CB70033FB10D703994004EB99FB0FD8E5E4F910
:100CC700FA227818EF2FFFEE33FEED33FDEC33FCFD
:100CD700C933C910D7059BE99A4007EC9BFCE99AF1
:100CE700F90FD8E0E4C9FAE4CCFB2275F010EF2F36
:100CF700FFEE33FEED33FDCC33CCC833C810D70736
:100D07009BEC9AE899400AED9BFDEC9AFCE899F870
:0E0D17000FD5F0DAE4CDFBE4CCFAE4C8F92203
:100D2500EB9FF5F0EA9E42F0E99D42F0E89C45F024
:010D3500229B
:0C0D3600E6FC08E6FD08E6FE08E6FF22E9
:0C0D4200ECF608EDF608EEF608EFF622DD
:100D4E00D083D082E493F608740193F6087402936C
:090D5E00F608740393F6740473A3
:00000001FF
