:03000000020BD020
:0C0BD000787FE4F6D8FD75811A02099ABE
:080BDC00000000000000000011
:100B0800E4F5A0C282C280C2817F38FE120BA77FA3
:100B1800047E00120B627F067E00120BA77F047E04
:100B280000120B627F0C7E00120BA77F047E00125E
:100B38000B627F017E00120BA77F047E00120B62FE
:070B48007F807E00020BA775
:100B4F00E50925E02410F808E62430FF120BB57FE5
:030B5F000A7E000B
:100B6200E4FDFCC3ED9FEC9E5015E4FBFA0BBB00C9
:0F0B7200010ABA01F8BB7EF50DBD00010C80E44D
:010B81002251
:0E0BA700C280C281D2828FA0120B5EC2822257
:0E0BB500D280C281D2828FA0120B5EC2822239
:100B82008B188A19891AAB18AA19A91A1208F660C1
:100B920013051AE51A7002051914F91208F6FF1264
:050BA2000BB580E2220A
:03001B00020BC312
:0D0BC300B2B6C28F758DBE758BE5D28E3235
:03000300020BE409
:030BE400B28C329E
:10099A00E4F508F509F50AF50BF50CF50DF50EF574
:1009AA000F78107C00FD7BFF7A0B79DCFE7F081242
:1009BA0008D0D290120B087F047E00120B62758950
:1009CA0015758DBE758BE5E4F58CF58AD2AFD2AB81
:1009DA00D28ED2A8D288E4F508F509F50AF50BAF4C
:1009EA008CEFFEAD8A7C00E42DFFEC3EFE7D3C12CE
:1009FA00090F8E0E8F0F7C007D3C12090F8E0C8F13
:100A0A000DAE0EAF0F7C007D3C12090F8C0E8D0FC0
:100A1A00850E08850F09D3E5099400E508648094DA
:100A2A00804030AE08AF097C007D0A120964E50BEC
:100A3A0025E02410F8A60408A605AE08AF097C0034
:100A4A007D0A1209648E088F09050BE50B70C7052C
:100A5A000A80C3E50B6401450A7008050BE50B70B3
:100A6A0002050A850C08850D09D3E5099400E508F5
:100A7A00648094804030AE08AF097C007D0A120978
:100A8A0064E50B25E02410F8A60408A605AE08AF15
:100A9A00097C007D0A1209648E088F09050BE50B93
:100AAA0070C7050A80C3E50B150B7002150A7F8013
:100ABA007E00120BA77F047E00120B627508007578
:100ACA000903120B4FE509150970021508C3E50958
:100ADA009402E5086480948050E87F3A120BB57559
:100AEA000800750901C3E50864809480500302096F
:0E0AFA00E0120B4FE509150970EB150880E7B7
:10080000E709F608DFFA8046E709F208DFFA803EDA
:1008100088828C83E709F0A3DFFA8032E309F608C7
:10082000DFFA8078E309F208DFFA807088828C832F
:10083000E309F0A3DFFA806489828A83E0A3F608E3
:10084000DFFA805889828A83E0A3F208DFFA804CBD
:1008500080D280FA80C680D4806980F28033801094
:1008600080A680EA809A80A880DA80E280CA8033FD
:1008700089828A83ECFAE493A3C8C582C8CCC58375
:10088000CCF0A3C8C582C8CCC583CCDFE9DEE78045
:100890000D89828A83E493A3F608DFF9ECFAA9F0C4
:1008A000EDFB2289828A83ECFAE0A3C8C582C8CC1A
:1008B000C583CCF0A3C8C582C8CCC583CCDFEADE33
:1008C000E880DB89828A83E493A3F208DFF980CC95
:1008D00088F0EF60010E4E60C388F0ED2402B4048E
:1008E0000050B9F582EB2402B4040050AF23234535
:0608F00082239008507302
:1008F600BB010689828A83E0225002E722BBFE0200
:09090600E32289828A83E4932232
:10090F00BC000BBE0029EF8DF084FFADF022E4CCCC
:10091F00F875F008EF2FFFEE33FEEC33FCEE9DEC95
:10092F00984005FCEE9DFE0FD5F0E9E4CEFD22EDDB
:10093F00F8F5F0EE8420D21CFEADF075F008EF2F25
:10094F00FFED33FD4007985006D5F0F222C398FD16
:05095F000FD5F0EA22B3
:10096400C2D5EC30E709B2D5E4C39DFDE49CFCEEAE
:1009740030E715B2D5E4C39FFFE49EFE12090FC30E
:10098400E49DFDE49CFC800312090F30D507C3E409
:060994009FFFE49EFE221D
:00000001FF
